:100000000C942A000C943F000C943F000C943F0089
:100010000C943F000C943F000C943F000C943F0064
:100020000C943F000C943F000C943F000C943F0054
:100030000C943F000C943F000C943F000C943F0044
:100040000C943F000C943F000C943F000C943F0034
:100050000C943F0011241FBECFE5D8E0DEBFCDBF1A
:1000600011E0A0E6B0E0E2E9FBE002C005900D92ED
:10007000A63DB107D9F70E94B4030C94C7050C94B0
:100080000000A8E0B0E0E7E4F0E00C9468059B0114
:10009000AC0183E08983DA01C9018827B7FD839524
:1000A0009927AA27BB27B82E2115310541055105EF
:1000B00019F482E089833AC08823A9F0203080E0D7
:1000C000380780E0480780E8580729F460E070E0CE
:1000D00080E09FEC30C0EE24FF248701E21AF30A8F
:1000E000040B150B02C079018A018EE1C82ED12CB8
:1000F000DC82CB82ED82FE820F831887C801B701B4
:100100000E94F30001971816190684F4082E04C003
:10011000EE0CFF1C001F111F0A94D2F7ED82FE8225
:100120000F831887C81AD90ADC82CB82BA82CE0123
:1001300001960E9442012896E9E00C948405ACE007
:10014000B0E0E5EAF0E00C946F0569837A838B8375
:100150009C83CE010196BE016B5F7F4F0E94170208
:100160008D81823061F1823050F1843021F48E81B2
:10017000882351F12EC02F81388537FD20C06E8134
:100180002F3131051CF06623F9F023C08EE190E099
:10019000821B930B29853A854B855C8504C0569557
:1001A0004795379527958A95D2F76623B1F05095F4
:1001B0004095309521953F4F4F4F5F4F0EC020E047
:1001C00030E040E050E009C02FEF3FEF4FEF5FE736
:1001D00004C020E030E040E050E8B901CA012C96AC
:1001E000E2E00C948B05EF92FF920F931F937B013B
:1001F0008C0180E0E81680E0F80681E0080780E0E6
:10020000180788F48FEFE816F1040105110531F0A5
:1002100028F088E090E0A0E0B0E017C080E090E037
:10022000A0E0B0E012C080E0E81680E0F80680E0D0
:10023000080781E0180728F088E190E0A0E0B0E02E
:1002400004C080E190E0A0E0B0E020E230E040E0D7
:1002500050E0281B390B4A0B5B0B04C01695079521
:10026000F794E7948A95D2F7F701EB52FF4F80811C
:10027000281B310941095109C9011F910F91FF90B4
:10028000EF900895DF92EF92FF920F931F93FC017E
:10029000E480F58006811781D1808081823048F426
:1002A00080E090E0A0E1B0E0E82AF92A0A2B1B2BBD
:1002B000A5C0843009F49FC0823021F4EE24FF24CD
:1002C000870105C0E114F1040105110519F4E0E00E
:1002D000F0E096C0628173819FEF623879070CF07D
:1002E0005BC022E83FEF261B370B2A3131052CF08B
:1002F00020E030E040E050E02AC0B801A701022E23
:1003000004C076956795579547950A94D2F781E092
:1003100090E0A0E0B0E004C0880F991FAA1FBB1FA7
:100320002A95D2F70197A109B1098E219F21A02317
:10033000B1230097A105B10521F081E090E0A0E094
:10034000B0E09A01AB01282B392B4A2B5B2BDA0149
:10035000C9018F779070A070B07080349105A105AD
:10036000B10539F427FF09C0205C3F4F4F4F5F4F65
:1003700004C0215C3F4F4F4F5F4FE0E0F0E0203082
:10038000A0E03A07A0E04A07A0E45A0710F0E1E035
:10039000F0E079018A0127C06038710564F5FB013E
:1003A000E158FF4FD801C7018F779070A070B070EF
:1003B00080349105A105B10539F4E7FE0DC080E454
:1003C00090E0A0E0B0E004C08FE390E0A0E0B0E0F7
:1003D000E80EF91E0A1F1B1F17FF05C0169507958B
:1003E000F794E794319687E016950795F794E7948C
:1003F0008A95D1F705C0EE24FF248701EFEFF0E0E6
:100400006E2F679566276795902F9F77D794DD2489
:10041000D7948E2F8695492F462B582F5D29B701EB
:10042000CA011F910F91FF90EF90DF900895FC019A
:10043000DB01408151812281622F6F7770E0221FA2
:100440002227221F9381892F880F822B282F30E0AB
:10045000991F9927991F11969C9311972115310582
:10046000A9F5411551056105710511F482E037C008
:1004700082E89FEF13969C938E9312979A01AB019B
:1004800067E0220F331F441F551F6A95D1F783E0A1
:100490008C930DC0220F331F441F551F12968D9150
:1004A0009C911397019713969C938E9312972030EB
:1004B00080E0380780E0480780E4580758F3149636
:1004C0002D933D934D935C93179708952F3F3105DE
:1004D00079F4411551056105710519F484E08C9397
:1004E000089564FF03C081E08C9312C01C9210C079
:1004F0002F57304013963C932E93129783E08C93A2
:1005000087E0440F551F661F771F8A95D1F77064E7
:1005100014964D935D936D937C931797089580EF98
:1005200084BBA89AA99AAA9AAB9AAC9AAD9AAE9AA9
:10053000AF9A089580E197E2FC013197F1F7AC980A
:10054000AD9AAE9AAF9A0197F1F7989902C081E3FC
:100550000DC0999902C084E309C09A9902C087E34B
:1005600005C09B9902C080E001C081E7AC9AAD98BC
:10057000AE9AAF9AE0E1F7E23197F1F7989902C0AD
:1005800082E30AC0999902C085E306C09A9902C025
:1005900088E302C09B9B80E3AC9AAD9AAE98AF9A79
:1005A000E0E1F7E23197F1F7989902C083E30AC0DE
:1005B000999902C086E306C09A9902C089E302C0F5
:1005C0009B9B83E2AC9AAD9AAE9AAF98E0E1F7E2DA
:1005D0003197F1F7989902C08BE20895999902C07A
:1005E0008DE208959A9902C08AE208959B9B8FE25A
:1005F0000895C198C298C39A40ED57E0FA01319727
:10060000F1F7282F207F2BBBFA013197F1F7C39820
:1006100020EA3FE0F9013197F1F7C39AFA013197E7
:10062000F1F790E044E0880F991F4A95E1F78BBB02
:10063000C398C9010197F1F70895C19AC298C39A66
:1006400040ED57E0FA013197F1F7282F207F2BBBBF
:10065000FA013197F1F7C39820EA3FE0F9013197A9
:10066000F1F7C39AFA013197F1F790E064E0880F4F
:10067000991F6A95E1F78BBBCA010197F1F7C398FF
:10068000C9010197F1F7089587B38E6087BB8AB3DC
:10069000806F8ABB80E395E70197F1F788E20E94BB
:1006A000F9028CE00E94F90281E00E94F90280EADE
:1006B0009FE00197F1F786E00E94F902089581E03A
:1006C0000E94F90280EA9FE00197F1F708958823DC
:1006D00029F0813011F060E001C0605C862F8068F5
:1006E0000E94F9020895CF93DF93EC0103C00E94AA
:1006F0001D03219688818823D1F7DF91CF9108953A
:100700009B018B3271F08C3218F48A3229F419C0B3
:100710008D3279F08F32E9F060E070E080E090E0B7
:1007200022C0460F571FBA01882777FD8095982F62
:1007300018C0241B350BB901882777FD8095982FA9
:1007400010C0429FB001439F700D529F700D112445
:1007500004C0CB01BA010E943805882777FD809537
:10076000982F0E94410008954F925F927F928F923E
:100770009F92AF92BF92CF92DF92EF92FF920F9330
:100780001F93DF93CF93CDB7DEB7E4970FB6F894FE
:10079000DEBF0FBECDBF0E9444030E948F021A82AB
:1007A00080E060E00E94670380E690E00E947303AF
:1007B00081E060E00E9467038BE690E00E94730393
:1007C00080E69AEE28EC30E0F9013197F1F70197D5
:1007D000D9F70E945F0380E060E00E94670389E729
:1007E00090E00E94730381E060E00E94670388E864
:1007F00090E00E94730380E69AEE28EC30E0F90165
:100800003197F1F70197D9F70E945F0380E060E02C
:100810000E94670386E990E00E94730380E69AEEE7
:1008200028EC30E0F9013197F1F70197D9F70E94F0
:100830005F0380E060E00E94670384EA90E00E942A
:10084000730381E060E00E94670388E890E00E9403
:10085000730380E69AEE28EC30E0F9013197F1F766
:100860000197D9F70E945F0380E060E00E94670370
:1008700082EB90E00E94730380E69AEE28EC30E071
:10088000F9013197F1F70197D9F70E945F03F3E07F
:100890008F2E912C8C0E9D1EE8ECAE2EB12C2E01CD
:1008A0000894411C511C80E060E00E94670383ECC7
:1008B00090E00E9473030E949A02182F833209F479
:1008C00064C08137C1F3A5C0F5013197F1F70197F5
:1008D000D9F772E0C72ED12C0E949A02282F8823C4
:1008E00061F1833209F451C08137B1F3C70163E08C
:1008F000880F991F6A95E1F7EE0CFF1CE80EF91EB0
:1009000080ED9FEFE80EF91EE20EF11C81E060E041
:100910000E946703C701B4014AE050E00E949605B7
:100920000E94730388E893E1F5013197F1F701978D
:10093000D9F70894C11CD11CCFCF88E893E1F50109
:100940003197F1F70197D9F70E949A028983833290
:10095000E1F08137C9F372C0F5013197F1F70197E2
:10096000D9F70E949A02182F833279F08137C9F3A0
:100970006BC0F5013197F1F70197D9F70E949A0200
:10098000282F882349F1833219F40E945F038BCF0B
:100990008137A1F3C80143E0880F991F4A95E1F719
:1009A000000F111F080F191F00531040020F111DD7
:1009B00081E0672D0E946703C801B4014AE050E05E
:1009C0000E9496050E94730388E893E1F501319730
:1009D000F1F70197D9F7D2CF81ED90E00E94730330
:1009E0008981B701A8010E9480030E949F00DC0159
:1009F000CB01B4014AE050E00E949605C4010E9478
:100A0000730388E893E1F5013197F1F70197D9F77E
:100A10004ACF81E060E00E946703E12EFF2480ED71
:100A20009FEFE80EF91EC701B4014AE050E00E94B2
:100A300096050E94730388E893E146CFC2010E94A5
:100A4000730388E893E188CF7C2C81E06C2D0E94B1
:100A50006703012F10E000531040C801B4014AE0C1
:100A600050E00E9496050E94730388E893E181CFCD
:100A700097FB092E07260AD077FD04D00CD006D0AC
:100A800000201AF4709561957F4F0895F6F79095C0
:100A900081959F4F0895AA1BBB1B51E107C0AA1F58
:100AA000BB1FA617B70710F0A61BB70B881F991F0F
:100AB0005A95A9F780959095BC01CD0108952F9284
:100AC0003F924F925F926F927F928F929F92AF92DE
:100AD000BF92CF92DF92EF92FF920F931F93CF932B
:100AE000DF93CDB7DEB7CA1BDB0B0FB6F894DEBFC2
:100AF0000FBECDBF09942A88398848885F846E84E8
:100B00007D848C849B84AA84B984C884DF80EE8031
:100B1000FD800C811B81AA81B981CE0FD11D0FB63A
:100B2000F894DEBF0FBECDBFED010895FB019F011C
:100B3000E8944230C4F04532B4F44A3029F497FBCB
:100B40001EF4909581959F4F642F77270E944B0547
:100B5000805D8A330CF0895D8193CB010097A1F70A
:100B600016F45DE251931082C9010C94B705DC01C3
:100B7000FC01672F71917723E1F7329704C07C91D4
:100B80006D9370836291AE17BF07C8F30895F89410
:020B9000FFCF95
:100B920057656C636F6D6520746F0043616C63759C
:100BA2006C61746F72203A2900456E746572206F11
:100BB200706572616E643100666F6C6C6F7765642C
:100BC200206279202A007468656E206F70657261F8
:100BD200746F72007468656E206F706572616E6406
:100BE20032005072657373202320746F20636C652A
:100BF2006172005374617274206E6F7721203A29FA
:100C020000203D2000000102020303030304040448
:100C12000404040404050505050505050505050587
:100C22000505050505060606060606060606060667
:100C32000606060606060606060606060606060652
:100C42000606060606070707070707070707070737
:100C52000707070707070707070707070707070722
:100C62000707070707070707070707070707070712
:100C72000707070707070707070707070707070702
:100C820007070707070808080808080808080808E7
:100C920008080808080808080808080808080808D2
:100CA20008080808080808080808080808080808C2
:100CB20008080808080808080808080808080808B2
:100CC20008080808080808080808080808080808A2
:100CD2000808080808080808080808080808080892
:100CE2000808080808080808080808080808080882
:100CF2000808080808080808080808080808080872
:060D0200080808080800C3
:00000001FF
